:020000040800F2
:10000000002800208D190008A1140008A71400087A
:10001000AD140008B3140008B91400080000000073
:10002000000000000000000000000000BF140008F5
:10003000CB14000800000000D7140008E3140008E7
:10004000D5190008D5190008D5190008D5190008D8
:10005000D5190008D5190008D5190008D5190008C8
:10006000D5190008D5190008D5190008D5190008B8
:10007000D5190008D5190008D5190008D5190008A8
:10008000D5190008D5190008D5190008D519000898
:10009000D5190008D5190008D5190008D519000888
:1000A000D5190008D5190008D5190008D519000878
:1000B000F1140008D519000800000000D519000847
:1000C000D51900080000000000000000D519000844
:1000D00000000000D5190008D51900080000000034
:1000E000D5190008D5190008D5190008000000002E
:1000F0000000000000000000000000000000000000
:0C01000000000000000000005FF808F1A3
:10010C0010B5054C237833B9044B13B10448AFF345
:10011C0000800123237010BD680000200000000047
:10012C000430000808B5034B1BB103490348AFF377
:10013C00008008BD000000006C00002004300008A6
:10014C0080B483B000AF7860094A7B6852F82330E2
:10015C00012B06D1064A7B68002142F823100123AB
:10016C0000E0002318460C37BD4680BC704700BF2A
:10017C008400002080B483B000AF7860094A7B68AB
:10018C0052F82330012B06D1064A7B68002142F835
:10019C002310012300E0002318460C37BD4680BC19
:1001AC00704700BF9400002080B582B000AF0023E0
:1001BC007B6012E05A4A7B6852F8232059497B68CD
:1001CC0041F82320584A7B6852F8232054497B6815
:1001DC0041F823207B6801337B607B68032BE9DDCE
:1001EC000421524801F0DCFE03461A464E4B1A60BD
:1001FC0008214E4801F0D4FE03461A464A4B5A6079
:10020C0010214A4801F0CCFE03461A46464B9A6030
:10021C004FF48041454801F0C3FE03461A46424B59
:10022C00DA6000233B6072E03F4A3B6852F82320BF
:10023C003B493B6851F823309A4265D1384A3B68B8
:10024C0052F8232037493B6851F823309A425BD14E
:10025C00374A3B6852F8232032493B6851F8233027
:10026C009A4223D02F4A3B6852F8232030493B68EE
:10027C0041F823202E4A3B6852F82330002B0AD138
:10028C002C4A3B68012142F823102B4A3B6864211D
:10029C0042F8231038E0284A3B68642142F82310C6
:1002AC00264A3B68002142F823102DE0204A3B6887
:1002BC0052F82330002B27D11F4A3B6852F82330C9
:1002CC00002B09DD1C4A3B6852F823305A1E1A4990
:1002DC003B6841F8232017E03B68012B0AD0174AF2
:1002EC003B68012142F82310134A3B68642142F811
:1002FC00231009E0114A3B68012142F823100E4AF1
:10030C003B68192142F823103B6801333B603B6882
:10031C00032B89DD00BF00BF0837BD4680BD00BF81
:10032C0010000020200000200000002000080140E8
:10033C0030000020840000204000002094000020A9
:10034C0080B500AF524B1B680F2B00F2958001A2B9
:10035C0052F823F0A1030008AF030008EB030008D8
:10036C00270400088504000885040008850400089B
:10037C00850400088504000885040008850400082D
:10038C00850400088504000885040008850400081D
:10039C004B0400083E4B01221A603E4B01221A60AE
:1003AC0073E000F07BF80020FFF7CAFE0346002B39
:1003BC0005D0374B02221A60364B02221A600320FA
:1003CC00FFF7BEFE0346002B58D0314B0F221A60AC
:1003DC003221002000F0ACFF01F0CEF94EE000F02D
:1003EC00A5FB0020FFF7ACFE0346002B05D0284BE5
:1003FC0003221A60274B03221A600320FFF7A0FE8A
:10040C000346002B3CD0224B0F221A6032210020D5
:10041C0000F08EFF01F0B0F932E000F0DBF90320C0
:10042C00FFF78EFE0346002B2CD0194B0F221A60BF
:10043C003221002000F07CFF01F09EF922E0002028
:10044C0000F08EFF0346002B0CD03221002000F070
:10045C006FFF8021104801F0D2FD4FF480610E48EF
:10046C0001F0CDFD0220FFF76BFE0346002B0BD0F5
:10047C00074B00221A6007E000BF06E000BF04E053
:10048C0000BF02E000BF00E000BF00BF80BD00BFA6
:10049C00B8000020B00100200008014080B500AF7A
:1004AC00C84B1B68013B062B00F2808101A252F85D
:1004BC0023F000BFDD040008B9070008B9070008E5
:1004CC0011050008B30500086706000807070008B7
:1004DC00BD4B1B68642202FB03F31946002000F09D
:1004EC0027FFB94B5B68642202FB03F3194601201A
:1004FC0000F01EFF0A21022000F01AFFB14B04226B
:10050C001A605CE1022000F02BFF0346002B12D096
:10051C00AE4B1B685A1CAD490A60184601F0E0F856
:10052C000A21022000F004FFA84B1B68012B02DDFE
:10053C00A64B00221A6001F053F901224021A44875
:10054C0001F045FD00228021A14801F040FD002270
:10055C004FF480719E4801F03AFD00224FF4007177
:10056C009B4801F034FD00224FF48061984801F063
:10057C002EFD01224FF40061954801F028FD012069
:10058C0000F0EEFE0346012B40F012818D4B05224C
:10059C001A608D4B9B68642202FB03F31946012001
:1005AC0000F0C6FE04E1022000F0DAFE0346002B48
:1005BC0012D0864B1B685A1C84490A60184601F0FD
:1005CC008FF80A21022000F0B3FE804B1B68012B30
:1005DC0002DD7E4B00221A6001F002F9012240215B
:1005EC007B4801F0F4FC00228021794801F0EFFCFB
:1005FC0000224FF48071764801F0E9FC00224FF4A0
:10060C000071734801F0E3FC01224FF480617048E3
:10061C0001F0DDFC00224FF400616D4801F0D7FCC5
:10062C00002000F09DFE0346012B40F0C380654B7B
:10063C0006221A60644B1B68642202FB03F3194602
:10064C00012000F075FE604B5B68642202FB03F333
:10065C001946002000F06CFEACE0022000F080FE99
:10066C000346002B12D0594B1B685A1C57490A6081
:10067C00184601F035F80A21022000F059FE534BC0
:10068C001B68012B02DD514B00221A6001F0A8F807
:10069C00002240214E4801F09AFC002280214C4857
:1006AC0001F095FC01224FF48071494801F08FFC58
:1006BC0001224FF40071464801F089FC00224FF4EE
:1006CC008061434801F083FC00224FF400614048F4
:1006DC0001F07DFC002000F043FE0346012B6BD1A2
:1006EC00384B07221A60384B9B68642202FB03F3D9
:1006FC001946002000F01CFE5EE0022000F030FEE7
:10070C000346002B12D0314B1B685A1C2F490A6030
:10071C00184600F0E5FF0A21022000F009FE2B4BE1
:10072C001B68012B02DD294B00221A6001F058F8DE
:10073C0000224021264801F04AFC01228021244855
:10074C0001F045FC00224FF48071214801F03FFC80
:10075C0001224FF400711E4801F039FC00224FF4C5
:10076C0080611B4801F033FC00224FF400611848F3
:10077C0001F02DFC012000F0F3FD0346012B1DD1EF
:10078C00104B04221A60104B1B68642202FB03F30B
:10079C001946002000F0CCFD0B4B5B68642202FB79
:1007AC0003F31946012000F0C3FD07E000BF06E08B
:1007BC0000BF04E000BF02E000BF00E000BF00BFCC
:1007CC0080BD00BFB001002050000020C8000020F8
:1007DC000008014080B582B000AFB84B1B68033BEA
:1007EC000B2B00F2918101A252F823F0290800088A
:1007FC00150B0008150B0008150B0008150B00084D
:10080C00150B0008150B0008150B0008150B00083C
:10081C003D08000809090008D509000800F0ACFFE4
:10082C00A64B0C221A600A21022000F081FD72E115
:10083C0001224021A24801F0CAFB00228021A048DD
:10084C0001F0C5FB00224FF480719D4801F0BFFB05
:10085C0001224FF400719A4801F0B9FB00224FF4C9
:10086C008061974801F0B3FB00224FF4006194487B
:10087C0001F0ADFB0120FFF763FC0346002B05D014
:10088C00904B1B6801338F4A13600AE00120FFF77D
:10089C0071FC0346002B04D08A4B1B680133894A38
:1008AC001360884B1B68632B02DD864B00221A6099
:1008BC00022000F055FD0346002B12D0824B1B6822
:1008CC005A1C81490A60184600F00AFF0A210220CE
:1008DC0000F02EFD7C4B1B68012B02DD7A4B0022B5
:1008EC001A6000F0D1FF0020FFF744FC0346002BF8
:1008FC0000F00C81714B0D221A6007E1002240219F
:10090C006F4801F064FB002280216D4801F05FFB11
:10091C0001224FF480716A4801F059FB00224FF418
:10092C000071674801F053FB00224FF4806164486A
:10093C0001F04DFB01224FF40061614801F047FBCF
:10094C000120FFF7FDFB0346002B05D05D4B5B68D8
:10095C0001335C4A53600AE00120FFF70BFC0346AD
:10096C00002B04D0574B5B680133564A5360554BF0
:10097C005B68632B02DD534B00225A60022000F0AF
:10098C00EFFC0346002B12D04F4B1B685A1C4E49F0
:10099C000A60184600F0A4FE0A21022000F0C8FCF0
:1009AC00494B1B68012B02DD474B00221A6000F0FB
:1009BC006BFF0020FFF7DEFB0346002B00F0A88046
:1009CC003E4B0E221A60A3E0002240213C4801F06D
:1009DC00FEFA012280213A4801F0F9FA00224FF484
:1009EC008071374801F0F3FA00224FF4007134485B
:1009FC0001F0EDFA01224FF48061314801F0E7FA81
:100A0C0000224FF400612E4801F0E1FA0120FFF7BB
:100A1C0097FB0346002B05D02A4B9B680133294AD0
:100A2C0093600AE00120FFF7A5FB0346002B04D0DE
:100A3C00244B9B680133234A9360224B9B68632BA6
:100A4C0002DD204B00229A60022000F089FC034654
:100A5C00002B12D01C4B1B685A1C1B490A601846F1
:100A6C0000F03EFE0A21022000F062FC164B1B68CF
:100A7C00012B02DD144B00221A6000F005FF02204E
:100A8C00FFF75EFB0346002B2ED00E4B1A680D4B66
:100A9C0059680C4B9B680B449A420CD0094B1A6852
:100AAC00084B5B689A4206DD064B1A68054B5B687F
:100ABC00D31A044A936000237B6012E0B00100203B
:100ACC0000080140BC000020C8000020144A7B68CC
:100ADC0052F8232013497B6841F823207B680133AB
:100AEC007B607B68022BF1DD0020FFF743FB0346A4
:100AFC00002B0FD00020FFF723FB0346002B09D05F
:100B0C00094B00221A6005E000BF04E000BF02E0C0
:100B1C0000BF00E000BF00BF0837BD4680BD00BF6E
:100B2C00BC00002050000020B800002080B500AFB1
:100B3C00754B1B68023B092B00F2DA8001A252F8BC
:100B4C0023F000BF790B0008FD0C0008FD0C000819
:100B5C00FD0C0008FD0C0008FD0C0008830B0008C0
:100B6C00E50B00083D0C00089D0C000800F004FE8D
:100B7C00654B08221A6001224021644801F027FAD3
:100B8C0000228021614801F022FA00224FF480718A
:100B9C005E4801F01CFA00224FF400715B4801F032
:100BAC0016FA00224FF48061584801F010FA012225
:100BBC004FF40061554801F00AFA0120FFF7C0FA22
:100BCC000346002B00F096804F4B09221A60C82177
:100BDC00002000F0ADFB8DE0012240214B4801F0DC
:100BEC00F6F900228021494801F0F1F900224FF476
:100BFC008071464801F0EBF900224FF40071434834
:100C0C0001F0E5F901224FF48061404801F0DFF971
:100C1C0000224FF400613D4801F0D9F9002000F0AA
:100C2C009FFB0346002B67D0374B0A221A6063E008
:100C3C0000224021354801F0CAF9002280213348B6
:100C4C0001F0C5F901224FF48071304801F0BFF971
:100C5C0001224FF400712D4801F0B9F900224FF434
:100C6C0080612A4801F0B3F900224FF40061274853
:100C7C0001F0ADF90120FFF763FA0346002B3DD0DC
:100C8C00214B0B221A60C821002000F051FB35E0EB
:100C9C00002240211D4801F09AF9012280211B48B5
:100CAC0001F095F900224FF48071184801F08FF98A
:100CBC0001224FF40071154801F089F900224FF41C
:100CCC008061124801F083F900224FF400610F4853
:100CDC0001F07DF9002000F043FB0346002B0FD000
:100CEC00094B08221A60C821002000F021FB07E004
:100CFC0000BF06E000BF04E000BF02E000BF00E060
:100D0C0000BF00BF80BD00BFB00100200008014043
:100D1C0080B500AF2021024801F071F900BF80BD01
:100D2C000008014080B500AF00F050FE00F028F83C
:100D3C0000F0AEF800F060F80C4801F0A5FD1922A7
:100D4C0000210B4800F040F901220021094800F075
:100D5C003BF901220021084800F036F9322200212B
:100D6C00064800F031F900F0A3FAFCE7B4010020CA
:100D7C004D03000895130008B50100081D0D00086F
:100D8C0080B590B000AF07F1180328220021184657
:100D9C0002F02AF93B1D00221A605A609A60DA6050
:100DAC001A610223BB610123BB621023FB62002387
:100DBC007B6307F11803184601F03AF90346002B40
:100DCC0001D000F0D3F80F237B600023BB6000231D
:100DDC00FB6000233B6100237B613B1D0021184617
:100DEC0001F0A6FB0346002B01D000F0BFF800BFBA
:100DFC004037BD4680BD000080B586B000AF07F11E
:100E0C00080300221A605A609A60DA603B4600229E
:100E1C001A605A601D4B4FF080421A601B4B41F612
:100E2C003F725A60194B00229A60184B0922DA6003
:100E3C00164B00221A61154B00229A61134801F0DF
:100E4C00D3FC0346002B01D000F090F84FF48053F4
:100E5C00BB6007F1080319460C4801F051FE03462C
:100E6C00002B01D000F082F800233B6000237B6054
:100E7C003B461946054802F029F80346002B01D0E1
:100E8C0000F074F800BF1837BD4680BDB4010020D7
:100E9C0080B586B000AF07F1080300221A605A60D3
:100EAC009A60DA60294B9B69284A43F004039361EA
:100EBC00264B9B6903F004037B607B68234B9B6987
:100ECC00224A43F008039361204B9B6903F008030B
:100EDC003B603B68002243F6E0711D4801F077F857
:100EEC00002243F6FF711B4801F071F844F21C0319
:100EFC00BB600023FB6001233B6107F1080319462B
:100F0C00134800F0D3FE43F6E073BB600123FB6093
:100F1C0000233B6102237B6107F1080319460C484F
:100F2C0000F0C4FE43F6FF73BB600123FB6000239B
:100F3C003B6102237B6107F108031946054800F069
:100F4C00B5FE00BF1837BD4680BD00BF0010024083
:100F5C0000080140000C014080B582B000AF786001
:100F6C0000F00AF800BF0837BD4680BD80B400AF62
:100F7C0072B600BFFEE7000080B400AF104B1B68D8
:100F8C0001330F4A13600F4B1B68002B13D00D4B12
:100F9C001B7C002B0FD10B4B5B68002B04D0094B37
:100FAC005B68013B074A5360064B5B68002B02D120
:100FBC00044B01221A7400BFBD4680BC704700BFB1
:100FCC0098010020CC000020B0B586B000AFF860CE
:100FDC00B9607A600023FB751AE0FA7D5949134613
:100FEC009B0013449B000B4404331B68BA689A4261
:100FFC001CD3FA7D534913469B0013449B000B44AE
:10100C0004331B68BA68D31ABB60FB7D0133FB75D4
:10101C00FB7D092B0BD8FA7D4A4913469B001344E0
:10102C009B000B441B68002BD7D100E000BFFB7D5D
:10103C00092B01D90A2381E00923BB7517E0BB7D7D
:10104C005A1EB97D3F480B469B000B449B0018442D
:10105C003C4913469B0013449B000B4404461D461D
:10106C000FCD0FC42B682360BB7D013BBB75BA7DD4
:10107C00FB7D9A42E3D8FA7D324913469B00134418
:10108C009B000B441B68002B15D0FB7D5A1C2D4973
:10109C0013469B0013449B000B4404331968FB7DDF
:1010AC005A1CBB68C91A274813469B0013449B0063
:1010BC00034404331960FA7D224913469B00134400
:1010CC009B000B44FA681A60FA7D1E4913469B007C
:1010DC0013449B000B440433BA681A60FA7D194917
:1010EC0013469B0013449B000B4408337A681A6028
:1010FC00BB68002B0CBF01230023DBB2FA7D184622
:10110C00104913469B0013449B000B4410330246BA
:10111C001A70FC7D00F0F4F802460A4923469B0045
:10112C0023449B000B440C331A60FA7D054913468B
:10113C009B0013449B000B440C331B681846183758
:10114C00BD46B0BDCC000020B0B485B000AF786017
:10115C0000237B730023FB737B68002B04D17B7B08
:10116C009EE0FB7B0133FB73FB7B092B0BD8FA7BDB
:10117C004E4913469B0013449B000B440C331B68D5
:10118C007A689A42EDD1FB7B092B09D8FA7B474947
:10119C0013469B0013449B000B441B68002B01D18E
:1011AC007B7B7DE001237B73FB7B5A1C3F49134601
:1011BC009B0013449B000B441B68002B20D0FB7B33
:1011CC00082B1DD8FB7B5A1C384913469B00134433
:1011DC009B000B4404331968FA7B344813469B007C
:1011EC0013449B00034404331B68FA7B01321944FB
:1011FC002E4813469B0013449B0003440433196090
:10120C00FB7BBB7317E0BB7B5A1CB97B27480B4697
:10121C009B000B449B001844244913469B00134429
:10122C009B000B4404461D460FCD0FC42B68236056
:10123C00BB7B0133BB73BB7B082BE4D9BA7B1B494B
:10124C0013469B0013449B000B4400221A60BA7B8C
:10125C00164913469B0013449B000B440833002291
:10126C001A60BA7B114913469B0013449B000B4434
:10127C00043300221A60BA7B0C4913469B001344BA
:10128C009B000B44103300221A70BA7B074913469B
:10129C009B0013449B000B440C3300221A607B7B95
:1012AC0018461437BD46B0BC704700BFCC000020B8
:1012BC00B0B586B000AF114B1B7C002B19D00F4B77
:1012CC001B6898470D4B00221A740C4B3C1D1D4695
:1012DC000FCD0FC42B6823603B691846FFF734FF12
:1012EC00FB68002B05D07B68F968FA681846FFF795
:1012FC006BFE00BF1837BD46B0BD00BFCC00002050
:10130C0080B400AF094B1B680133084A1360074BCC
:10131C001B68002B04D1054B1B680133034A136077
:10132C00024B1B681846BD4680BC704794010020D8
:10133C0080B483B000AF7860396007497B683A6845
:10134C0041F82320054A7B68002142F8231000BF96
:10135C000C37BD4680BC7047A40000209C010020C7
:10136C0080B483B000AF7860064A7B6852F82330B3
:10137C00012B01D1012300E0002318460C37BD4698
:10138C0080BC70479C01002080B483B000AF002368
:10139C007B601CE0124A7B6852F82330002B13DD73
:1013AC000F4A7B6852F823305A1E0D497B6841F86E
:1013BC0023200B4A7B6852F82330002B04D1094AB6
:1013CC007B68012142F823107B6801337B607B68CA
:1013DC00042BDFDD00BF00BF0C37BD4680BC70475F
:1013EC00A40000209C01002080B485B000AF154BF8
:1013FC009B69144A43F001039361124B9B6903F000
:10140C000103BB60BB680F4BDB690E4A43F0805392
:10141C00D3610C4BDB6903F080537B607B680A4B18
:10142C005B68FB60FB6823F0E063FB60FB6843F0E8
:10143C008063FB60044AFB68536000BF1437BD46F1
:10144C0080BC7047001002400000014080B584B0A1
:10145C0000AF78607B681B68B3F1804F13D10C4BE5
:10146C00DB690B4A43F00103D361094BDB6903F0E1
:10147C000103FB60FB68002200211C2000F0DFFB55
:10148C001C2000F0F8FB00BF1037BD4680BD00BF2C
:10149C000010024080B400AFFEE780B400AFFEE75E
:1014AC0080B400AFFEE780B400AFFEE780B400AFBD
:1014BC00FEE780B400AF00BFBD4680BC704780B46F
:1014CC0000AF00BFBD4680BC704780B400AF00BF0A
:1014DC00BD4680BC704780B500AF00F0BDFA00BFC0
:1014EC0080BD000080B500AF024801F019FA00BFC2
:1014FC0080BD00BFB401002080B400AF00BFBD466A
:10150C0080BC704780B584B000AF78607B68002BDE
:10151C0063DB7B68092B60DC324A7B6813441B78E5
:10152C00FB73FB7B03F00103002B0CBF0123002397
:10153C00DBB21A4601212C4800F049FDFB7B03F07D
:10154C000203002B0CBF01230023DBB21A4602213D
:10155C00254800F03CFDFB7B03F00403002B0CBF83
:10156C0001230023DBB21A4604211F4800F02FFD93
:10157C00FB7B03F00803002B0CBF01230023DBB221
:10158C001A460821184800F022FDFB7B03F01003DB
:10159C00002B0CBF01230023DBB21A46102112488A
:1015AC0000F015FDFB7B03F02003002B0CBF012387
:1015BC000023DBB21A4620210B4800F008FDFB7B10
:1015CC0003F04003002B0CBF01230023DBB21A46AF
:1015DC004021054800F0FBFC00E000BF1037BD4681
:1015EC0080BD00BF2C300008000C014080B584B0D9
:1015FC0000AF78607B68002B69DB7B68092B66DCAD
:10160C00354A7B6813441B78FB73FB7B03F00103A7
:10161C00002B0CBF01230023DBB21A4680212F487C
:10162C0000F0D5FCFB7B03F00203002B0CBF012365
:10163C000023DBB21A464FF48071284800F0C7FC37
:10164C00FB7B03F00403002B0CBF01230023DBB254
:10165C001A464FF40071214800F0B9FCFB7B03F0F3
:10166C000803002B0CBF01230023DBB21A464FF4F6
:10167C0080611A4800F0ABFCFB7B03F01003002BDD
:10168C000CBF01230023DBB21A464FF40061134850
:10169C0000F09DFCFB7B03F02003002B0CBF01230F
:1016AC000023DBB21A464FF480510C4800F08FFC3B
:1016BC00FB7B03F04003002B0CBF01230023DBB2A8
:1016CC001A464FF40051054800F081FC00E000BFC1
:1016DC001037BD4680BD00BF2C300008000C014007
:1016EC0080B582B000AF78607B68002B03D07B683C
:1016FC00012B1BD035E000224FF480511B4800F029
:10170C0066FC01224FF40051184800F060FC184AA6
:10171C007B6852F823301846FFF7F4FE154A7B68B5
:10172C0052F823301846FFF761FF1AE001224FF4FC
:10173C0080510E4800F04BFC00224FF400510B4836
:10174C0000F045FC0A4A7B6852F823301846FFF734
:10175C00D9FE084A7B6852F823301846FFF746FF3B
:10176C0000BF00BF0837BD4680BD00BF0008014068
:10177C0004020020FC01002080B500AF01224FF4D0
:10178C008051164800F023FC01224FF400511348FD
:10179C0000F01DFC00224021104800F018FC002233
:1017AC0080210E4800F013FC00224FF480710B488E
:1017BC0000F00DFC00224FF40071084800F007FC0B
:1017CC0000224FF48061054800F001FC00224FF428
:1017DC000061024800F0FBFB00BF80BD0008014027
:1017EC0080B483B000AF234B1B686333224A82FB67
:1017FC0003125211DB17D31A7B601E4B5B686333E9
:10180C001D4A82FB03125211DB17D31A3B607B6813
:10181C001A4A82FB03129210DB17D31A184A136070
:10182C007968164B83FB01239A10CB17D21A1346F7
:10183C009B0013445B00CA1A114B5A603B680F4A59
:10184C0082FB03129210DB17D31A0E4A136039680D
:10185C000A4B83FB01239A10CB17D21A13469B0019
:10186C0013445B00CA1A074B5A6000BF0C37BD46C5
:10187C0080BC7047A40000201F85EB51676666662C
:10188C0004020020FC01002080B400AF374B1B6821
:10189C000E2B46D00E2B64DC0C2B02D00D2B20D043
:1018AC005FE0334B00221A60314B01225A60314BFE
:1018BC001B68314A82FB03129210DB17D31A2F4A92
:1018CC0013602C4B19682C4B83FB01239A10CB17FC
:1018DC00D21A13469B0013445B00CA1A274B5A605A
:1018EC0040E0234B00221A60214B02225A60214B0C
:1018FC005B68214A82FB03129210DB17D31A1F4A32
:10190C0013601C4B59681C4B83FB01239A10CB179B
:10191C00D21A13469B0013445B00CA1A174B5A6029
:10192C0020E0134B00221A60114B03225A60114B1A
:10193C009B68114A82FB03129210DB17D31A0F4AD1
:10194C0013600C4B99680C4B83FB01239A10CB173B
:10195C00D21A13469B0013445B00CA1A074B5A60F9
:10196C0000E000BF00BFBD4680BC7047B001002046
:10197C0004020020BC00002067666666FC010020A3
:10198C00FFF7BAFD0B480C490C4A002302E0D4586F
:10199C00C4500433C4188C42F9D3094A094C0023AF
:1019AC0001E013600432A242FBD301F0F9FAFFF715
:1019BC00B9F970470000002068000020543000087E
:1019CC006800002010020020FEE7000080B500AF88
:1019DC00084B1B68074A43F010031360032000F008
:1019EC0023F90F2000F008F8FFF7FEFC002318463F
:1019FC0080BD00BF0020024080B582B000AF78608F
:101A0C00124B1A68124B1B7819464FF47A73B3FBBE
:101A1C00F1F3B2FBF3F3184600F03BF90346002B4D
:101A2C0001D001230EE07B680F2B0AD800227968C5
:101A3C004FF0FF3000F003F9064A7B681360002377
:101A4C0000E0012318460837BD4680BD5C0000202D
:101A5C00640000206000002080B400AF054B1B78B0
:101A6C001A46054B1B681344034A136000BFBD465E
:101A7C0080BC7047640000200C02002080B400AFD2
:101A8C00024B1B681846BD4680BC70470C020020F8
:101A9C0080B485B000AF78607B6803F00703FB600F
:101AAC000C4BDB68BB60BA684FF6FF031340BB609E
:101ABC00FB681A02BB68134343F0BF6343F4003363
:101ACC00BB60044ABB68D36000BF1437BD4680BC02
:101ADC00704700BF00ED00E080B400AF044BDB6842
:101AEC001B0A03F007031846BD4680BC704700BFB5
:101AFC0000ED00E080B483B000AF0346FB7197F9B2
:101B0C000730002B0BDBFB7903F01F02064997F91A
:101B1C0007305B09012000FA02F241F8232000BFD4
:101B2C000C37BD4680BC704700E100E080B483B048
:101B3C0000AF03463960FB7197F90730002B0ADBC5
:101B4C003B68DAB20C4997F907301201D2B20B4458
:101B5C0083F800230AE03B68DAB20849FB7903F00A
:101B6C000F03043B1201D2B20B441A7600BF0C37A0
:101B7C00BD4680BC704700BF00E100E000ED00E016
:101B8C0080B489B000AFF860B9607A60FB6803F08C
:101B9C000703FB61FB69C3F10703042B28BF042374
:101BAC00BB61FB690433062B02D9FB69033B00E0E4
:101BBC0000237B614FF0FF32BB6902FA03F3DA4377
:101BCC00BB681A407B699A404FF0FF317B6901FA80
:101BDC0003F3D9437B680B40134318462437BD46A7
:101BEC0080BC704780B582B000AF78607B68013BE9
:101BFC00B3F1807F01D301230FE00A4A7B68013BDC
:101C0C0053600F214FF0FF30FFF790FF054B002280
:101C1C009A60044B07221A60002318460837BD4609
:101C2C0080BD00BF10E000E080B582B000AF7860EE
:101C3C007868FFF72DFF00BF0837BD4680BD80B523
:101C4C0086B000AF0346B9607A60FB7300237B61FA
:101C5C00FFF742FF78617A68B9687869FFF790FFFF
:101C6C00024697F90F3011461846FFF75FFF00BF89
:101C7C001837BD4680BD80B582B000AF0346FB71FE
:101C8C0097F907301846FFF735FF00BF0837BD46F8
:101C9C0080BD80B582B000AF78607868FFF7A2FF96
:101CAC00034618460837BD4680BD000080B48BB093
:101CBC0000AF7860396000237B6200233B6248E10F
:101CCC0001227B6A02FA03F3FB613B681B68FA6929
:101CDC001340BB61BA69FB699A4240F037813B689B
:101CEC005B68A34A93425ED0A14A934275D8A14A3D
:101CFC00934258D09F4A93426FD89F4A934252D0F6
:101D0C009D4A934269D89D4A93424CD09B4A934238
:101D1C0063D89B4A934246D0994A93425DD8122B82
:101D2C002AD8122B59D801A252F823F0B31D00085F
:101D3C008D1D00089F1D0008E11D0008E71D00080F
:101D4C00E71D0008E71D0008E71D0008E71D000857
:101D5C00E71D0008E71D0008E71D0008E71D000847
:101D6C00E71D0008E71D0008E71D0008E71D000837
:101D7C00951D0008A91D0008824A934213D02CE03F
:101D8C003B68DB683B6229E03B68DB6804333B6201
:101D9C0024E03B68DB6808333B621FE03B68DB6890
:101DAC000C333B621AE03B689B68002B02D1042386
:101DBC003B6213E03B689B68012B05D108233B6217
:101DCC007B68FA691A6109E008233B627B68FA694F
:101DDC005A6103E000233B6200E000BFBB69FF2BAC
:101DEC0001D87B6801E07B6804337B61BB69FF2B06
:101DFC0002D87B6A9B0002E07B6A083B9B003B613C
:101E0C007B691A680F213B6901FA03F3DB431A4023
:101E1C00396A3B6901FA03F31A437B691A603B6820
:101E2C005B6803F08053002B00F09080564B9B694D
:101E3C00554A43F001039361534B9B6903F0010333
:101E4C00BB60BB68514A7B6A9B08023352F8233053
:101E5C00FB607B6A03F003039B000F2202FA03F37F
:101E6C00DB43FA681340FB607B68494A93420DD010
:101E7C007B68484A934207D07B68474A934201D11A
:101E8C00022304E0032302E0012300E000237A6A2A
:101E9C0002F0030292009340FA681343FB603B4943
:101EAC007B6A9B080233FA6841F823203B685B6825
:101EBC0003F48013002B06D0384B9A683749BB6962
:101ECC0013438B6006E0354B9A68BB69DB4333499F
:101EDC0013408B603B685B6803F40013002B06D047
:101EEC002E4BDA682D49BB691343CB6006E02B4BB4
:101EFC00DA68BB69DB4329491340CB603B685B68FC
:101F0C0003F40033002B06D0244B5A682349BB69D9
:101F1C0013434B6006E0214B5A68BB69DB431F49F6
:101F2C0013404B603B685B6803F48033002B06D096
:101F3C001A4B1A681949BB6913430B6006E0174B1F
:101F4C001A68BB69DB43154913400B607B6A01338C
:101F5C007B623B681A687B6A22FA03F3002B7FF4DE
:101F6C00AFAE00BF00BF2C37BD4680BC704700BF72
:101F7C00000032100000311000002210000021106F
:101F8C00000012100000111000100240000001406F
:101F9C0000080140000C0140001001400004014009
:101FAC0080B485B000AF78600B467B807B689A6804
:101FBC007B881340002B02D00123FB7301E000232C
:101FCC00FB73FB7B18461437BD4680BC704780B44E
:101FDC0083B000AF78600B467B8013467B707B78B8
:101FEC00002B03D07A887B681A6103E07B881A0483
:101FFC007B681A6100BF0C37BD4680BC704780B44B
:10200C0085B000AF78600B467B807B68DB68FB603B
:10201C007A88FB6813401A04FB68D9437B880B4011
:10202C001A437B681A6100BF1437BD4680BC7047E9
:10203C0080B586B000AF78607B68002B01D101239E
:10204C006CE27B681B6803F00103002B00F08780B7
:10205C00924B5B6803F00C03042B0CD08F4B5B682A
:10206C0003F00C03082B12D18C4B5B6803F4803308
:10207C00B3F5803F0BD1894B1B6803F40033002B65
:10208C006CD07B685B68002B68D1012346E27B68CF
:10209C005B68B3F5803F06D1804B1B687F4A43F4E5
:1020AC00803313602EE07B685B68002B0CD17B4B7C
:1020BC001B687A4A23F480331360784B1B68774A89
:1020CC0023F4802313601DE07B685B68B3F5A02FBD
:1020DC000CD1724B1B68714A43F4802313606F4B15
:1020EC001B686E4A43F4803313600BE06B4B1B6828
:1020FC006A4A23F480331360684B1B68674A23F4E5
:10210C00802313607B685B68002B13D0FFF7B6FC51
:10211C00386108E0FFF7B2FC02463B69D31A642B26
:10212C0001D90323FAE15D4B1B6803F40033002B48
:10213C00F0D014E0FFF7A2FC386108E0FFF79EFC3A
:10214C0002463B69D31A642B01D90323E6E1534BB6
:10215C001B6803F40033002BF0D100E000BF7B6858
:10216C001B6803F00203002B63D04C4B5B6803F03D
:10217C000C03002B0BD0494B5B6803F00C03082BB2
:10218C001CD1464B5B6803F48033002B16D1434BB8
:10219C001B6803F00203002B05D07B681B69012B25
:1021AC0001D00123BAE13D4B1B6823F0F8027B6898
:1021BC005B69DB00394913430B603AE07B681B69B0
:1021CC00002B20D0364B01221A60FFF757FC3861E8
:1021DC0008E0FFF753FC02463B69D31A022B01D9E6
:1021EC0003239BE12D4B1B6803F00203002BF0D063
:1021FC002A4B1B6823F0F8027B685B69DB002749DC
:10220C0013430B6015E0264B00221A60FFF736FCD7
:10221C00386108E0FFF732FC02463B69D31A022B07
:10222C0001D903237AE11D4B1B6803F00203002B39
:10223C00F0D17B681B6803F00803002B3AD07B6855
:10224C009B69002B19D0174B01221A60FFF716FC63
:10225C00386108E0FFF712FC02463B69D31A022BE7
:10226C0001D903235AE10D4B5B6A03F00203002BE7
:10227C00F0D0012000F09AFA1CE00A4B00221A6000
:10228C00FFF7FCFB38610FE0FFF7F8FB02463B69F8
:10229C00D31A022B08D9032340E100BF00100240DF
:1022AC0000004242800442429E4B5B6A03F00203F0
:1022BC00002BE9D17B681B6803F00403002B00F0B2
:1022CC00A6800023FB75974BDB6903F08053002B32
:1022DC000DD1944BDB69934A43F08053D361914BFE
:1022EC00DB6903F08053BB60BB680123FB758E4B2D
:1022FC001B6803F48073002B18D18B4B1B688A4A24
:10230C0043F480731360FFF7B9FB386108E0FFF703
:10231C00B5FB02463B69D31A642B01D90323FDE0BC
:10232C00814B1B6803F48073002BF0D07B68DB6857
:10233C00012B06D17B4B1B6A7A4A43F001031362D3
:10234C002DE07B68DB68002B0CD1764B1B6A754A41
:10235C0023F001031362734B1B6A724A23F00403CC
:10236C0013621CE07B68DB68052B0CD16D4B1B6A80
:10237C006C4A43F0040313626A4B1B6A694A43F0CC
:10238C00010313620BE0674B1B6A664A23F00103DF
:10239C001362644B1B6A634A23F0040313627B6869
:1023AC00DB68002B15D0FFF769FB38610AE0FFF7FB
:1023BC0065FB02463B69D31A41F28832934201D93C
:1023CC000323ABE0574B1B6A03F00203002BEED048
:1023DC0014E0FFF753FB38610AE0FFF74FFB0246AE
:1023EC003B69D31A41F28832934201D9032395E019
:1023FC004C4B1B6A03F00203002BEED1FB7D012B2F
:10240C0005D1484BDB69474A23F08053D3617B6885
:10241C00DB69002B00F08180424B5B6803F00C03FE
:10242C00082B61D07B68DB69022B46D13F4B002225
:10243C001A60FFF723FB386108E0FFF71FFB024629
:10244C003B69D31A022B01D9032367E0354B1B6878
:10245C0003F00073002BF0D17B681B6AB3F5803F4F
:10246C0008D1304B5B6823F400327B689B682D49A4
:10247C0013434B602B4B5B6823F474127B68196A13
:10248C007B685B6A0B43274913434B60274B012244
:10249C001A60FFF7F3FA386108E0FFF7EFFA02462B
:1024AC003B69D31A022B01D9032337E01D4B1B6860
:1024BC0003F00073002BF0D02FE01C4B00221A60AD
:1024CC00FFF7DCFA386108E0FFF7D8FA02463B69FF
:1024DC00D31A022B01D9032320E0124B1B6803F003
:1024EC000073002BF0D118E07B68DB69012B01D164
:1024FC00012313E00B4B5B68FB60FB6803F4803239
:10250C007B681B6A9A4206D1FB6803F470127B68E5
:10251C005B6A9A4201D0012300E000231846183769
:10252C00BD4680BD00100240007000406000424279
:10253C0080B584B000AF786039607B68002B01D126
:10254C000123D0E06A4B1B6803F007033A689A42F8
:10255C0010D9674B1B6823F0070265493B6813438E
:10256C000B60634B1B6803F007033A689A4201D077
:10257C000123B8E07B681B6803F00203002B20D01A
:10258C007B681B6803F00403002B05D0594B5B6878
:10259C00584A43F4E06353607B681B6803F00803FC
:1025AC00002B05D0534B5B68524A43F46053536085
:1025BC00504B5B6823F0F0027B689B684D491343DA
:1025CC004B607B681B6803F00103002B40D07B68D9
:1025DC005B68012B07D1474B1B6803F40033002BBE
:1025EC0015D101237FE07B685B68022B07D1414B3F
:1025FC001B6803F00073002B09D1012373E03D4BE2
:10260C001B6803F00203002B01D101236BE0394B53
:10261C005B6823F003027B685B68364913434B60AD
:10262C00FFF72CFAF8600AE0FFF728FA0246FB687D
:10263C00D31A41F28832934201D9032353E02D4B34
:10264C005B6803F00C027B685B689B009A42EBD1E1
:10265C00274B1B6803F007033A689A4210D2244BAD
:10266C001B6823F0070222493B6813430B60204B85
:10267C001B6803F007033A689A4201D0012332E049
:10268C007B681B6803F00403002B08D0194B5B68B4
:10269C0023F4E0627B68DB68164913434B607B686C
:1026AC001B6803F00803002B09D0124B5B6823F462
:1026BC0060527B681B69DB000E4913434B6000F0D2
:1026CC0021F802460B4B5B681B0903F00F030A4908
:1026DC00CB5C22FA03F3094A1360094B1B681846BA
:1026EC00FFF78AF9002318461037BD4680BD00BF9E
:1026FC0000200240001002401C3000085C0000204A
:10270C006000002080B487B000AF0023FB60002382
:10271C00BB6000237B6100237B6000233B611E4B6D
:10272C005B68FB60FB6803F00C03042B02D0082BE6
:10273C0003D027E0194B3B6127E0FB689B0C03F0AF
:10274C000F03174AD35C7B60FB6803F48033002BC8
:10275C0010D0114B5B685B0C03F00103114AD35C86
:10276C00BB607B680D4A02FB03F2BB68B2FBF3F360
:10277C007B6104E07B680C4A02FB03F37B617B69A1
:10278C003B6102E0054B3B6100BF3B6918461C37BF
:10279C00BD4680BC704700BF0010024000127A009A
:1027AC00383000084830000800093D0080B485B07E
:1027BC0000AF78600A4B1B680A4AA2FB03235B0A32
:1027CC007A6802FB03F3FB6000BFFB685A1EFA60D9
:1027DC00002BF9D100BF00BF1437BD4680BC704739
:1027EC005C000020D34D621080B582B000AF7860E1
:1027FC007B68002B01D1012341E07B6893F83D30CD
:10280C00DBB2002B06D17B68002283F83C20786871
:10281C00FEF71CFE7B68022283F83D207B681A6859
:10282C007B6804331946104600F056FA7B68012287
:10283C0083F846207B68012283F83E207B680122C6
:10284C0083F83F207B68012283F840207B680122BB
:10285C0083F841207B68012283F842207B680122A7
:10286C0083F843207B68012283F844207B68012293
:10287C0083F845207B68012283F83D20002318460D
:10288C000837BD4680BD000080B485B000AF7860CD
:10289C007B6893F83D30DBB2012B01D0012335E08E
:1028AC007B68022283F83D207B681B68DA687B68B2
:1028BC001B6842F00102DA607B681B68164A93427F
:1028CC0009D07B681B68B3F1804F04D07B681B6810
:1028DC00124A934211D17B681B689B6803F0070373
:1028EC00FB60FB68062B10D07B681B681A687B6842
:1028FC001B6842F001021A6007E07B681B681A68CB
:10290C007B681B6842F001021A60002318461437DA
:10291C00BD4680BC704700BF002C01400004004045
:10292C0080B584B000AF78607B681B68DB68FB60A7
:10293C007B681B681B69BB60BB6803F00203002B40
:10294C0020D0FB6803F00203002B1BD07B681B68B4
:10295C006FF002021A617B6801221A777B681B6890
:10296C009B6903F00303002B03D0786800F098F9FF
:10297C0005E0786800F08BF9786800F09AF97B68CC
:10298C0000221A77BB6803F00403002B20D0FB68ED
:10299C0003F00403002B1BD07B681B686FF0040250
:1029AC001A617B6802221A777B681B689B6903F4A7
:1029BC004073002B03D0786800F072F905E078685A
:1029CC0000F065F9786800F074F97B6800221A77DA
:1029DC00BB6803F00803002B20D0FB6803F008034E
:1029EC00002B1BD07B681B686FF008021A617B6898
:1029FC0004221A777B681B68DB6903F00303002B46
:102A0C0003D0786800F04CF905E0786800F03FF9E5
:102A1C00786800F04EF97B6800221A77BB6803F0E7
:102A2C001003002B20D0FB6803F01003002B1BD0ED
:102A3C007B681B686FF010021A617B6808221A779A
:102A4C007B681B68DB6903F44073002B03D0786848
:102A5C0000F026F905E0786800F019F9786800F0C4
:102A6C0028F97B6800221A77BB6803F00103002B5E
:102A7C000CD0FB6803F00103002B07D07B681B68AC
:102A8C006FF001021A617868FEF766FABB6803F012
:102A9C008003002B0CD0FB6803F08003002B07D0C5
:102AAC007B681B686FF080021A61786800F06FFA1F
:102ABC00BB6803F04003002B0CD0FB6803F0400311
:102ACC00002B07D07B681B686FF040021A61786896
:102ADC0000F0F8F8BB6803F02003002B0CD0FB6867
:102AEC0003F02003002B07D07B681B686FF02002DB
:102AFC001A61786800F042FA00BF1037BD4680BDFD
:102B0C0080B584B000AF786039600023FB737B68BC
:102B1C0093F83C30012B01D10223B4E07B680122F5
:102B2C0083F83C207B68022283F83D207B681B687D
:102B3C009B68BB60BB6823F07703BB60BB6823F466
:102B4C007F43BB607B681B68BA689A603B681B68F4
:102B5C00B3F5005F3ED0B3F5005F00F28780B3F5AC
:102B6C00805F00F08680B3F5805F7FD8702B1AD021
:102B7C00702B7BD8602B50D0602B77D8502B3CD04F
:102B8C00502B73D8402B58D0402B6FD8302B64D09F
:102B9C00302B6BD8202B60D0202B67D8002B5CD02F
:102BAC00102B5AD062E07B6818683B6899683B68C8
:102BBC005A683B68DB6800F06AF97B681B689B68A5
:102BCC00BB60BB6843F07703BB607B681B68BA686B
:102BDC009A604FE07B6818683B6899683B685A6854
:102BEC003B68DB6800F053F97B681B689A687B686C
:102BFC001B6842F480429A603CE07B6818683B6832
:102C0C0059683B68DB681A4600F0CAF87B681B6899
:102C1C005021184600F021F92CE07B6818683B68BD
:102C2C0059683B68DB681A4600F0E8F87B681B685B
:102C3C006021184600F011F91CE07B6818683B68AD
:102C4C0059683B68DB681A4600F0AAF87B681B6879
:102C5C004021184600F001F90CE07B681A683B68CB
:102C6C001B681946104600F0F8F803E00123FB73CB
:102C7C0000E000BF7B68012283F83D207B680022C6
:102C8C0083F83C20FB7B18461037BD4680BD80B4D2
:102C9C0083B000AF786000BF0C37BD4680BC704776
:102CAC0080B483B000AF786000BF0C37BD4680BCE9
:102CBC00704780B483B000AF786000BF0C37BD465E
:102CCC0080BC704780B483B000AF786000BF0C3715
:102CDC00BD4680BC7047000080B485B000AF786002
:102CEC0039607B681B68FB607B682B4A934207D07A
:102CFC007B68B3F1804F03D07B68284A934208D19C
:102D0C00FB6823F07003FB603B685B68FA68134355
:102D1C00FB607B68204A934207D07B68B3F1804FFD
:102D2C0003D07B681D4A934208D1FB6823F440739F
:102D3C00FB603B68DB68FA681343FB60FB6823F0BD
:102D4C0080023B685B691343FB607B68FA681A601E
:102D5C003B689A687B68DA623B681A687B689A629F
:102D6C007B680D4A934203D13B681A697B681A63EE
:102D7C007B6801225A617B681B6903F00103002BFD
:102D8C0005D07B681B6923F001027B681A6100BFC8
:102D9C001437BD4680BC7047002C01400004004035
:102DAC0080B487B000AFF860B9607A60FB681B6ACA
:102DBC007B61FB681B6A23F00102FB681A62FB68EB
:102DCC009B693B613B6923F0F0033B617B681B0112
:102DDC003A6913433B617B6923F00A037B617A698F
:102DEC00BB6813437B61FB683A699A61FB687A693B
:102DFC001A6200BF1C37BD4680BC704780B487B0D8
:102E0C0000AFF860B9607A60FB681B6A7B61FB6895
:102E1C001B6A23F01002FB681A62FB689B693B611A
:102E2C003B6923F470433B617B681B033A69134392
:102E3C003B617B6923F0A0037B61BB681B017A6952
:102E4C0013437B61FB683A699A61FB687A691A6281
:102E5C0000BF1C37BD4680BC704780B485B000AF46
:102E6C00786039607B689B68FB60FB6823F07003BB
:102E7C00FB603A68FB68134343F00703FB607B6815
:102E8C00FA689A6000BF1437BD4680BC704780B4A6
:102E9C0087B000AFF860B9607A603B60FB689B68F4
:102EAC007B617B6923F47F437B613B681A027B68FF
:102EBC001A43BB6813437A6913437B61FB687A69D5
:102ECC009A6000BF1C37BD4680BC704780B485B08B
:102EDC0000AF786039607B6893F83C30012B01D1EE
:102EEC00022341E07B68012283F83C207B680222AC
:102EFC0083F83D207B681B685B68FB607B681B6804
:102F0C009B68BB60FB6823F07003FB603B681B682D
:102F1C00FA681343FB607B681B68FA685A607B682D
:102F2C001B68144A934209D07B681B68B3F1804F2D
:102F3C0004D07B681B68104A93420CD1BB6823F009
:102F4C008003BB603B685B68BA681343BB607B68FB
:102F5C001B68BA689A607B68012283F83D207B6805
:102F6C00002283F83C20002318461437BD4680BC51
:102F7C00704700BF002C01400004004080B483B0B7
:102F8C0000AF786000BF0C37BD4680BC704780B482
:102F9C0083B000AF786000BF0C37BD4680BC704773
:102FAC0070B500260C4D0D4C641BA410A64209D123
:102FBC0000F022F800260A4D0A4C641BA410A6420D
:102FCC0005D170BD55F8043B98470136EEE755F82E
:102FDC00043B98470136F2E74C3000084C300008AF
:102FEC004C3000085030000803460244934200D194
:102FFC00704703F8011BF9E7F8B500BFF8BC08BC33
:10300C009E467047F8B500BFF8BC08BC9E4670479A
:10301C00000000000000000001020304060708097C
:10302C003F065B4F666D7D077F6F00000203040552
:10303C00060708090A0B0C0D0E0F101001020000F8
:04304C003101000846
:043050000D01000866
:103054000100000001000000010000000100000068
:103064000100000001000000010000000100000058
:103074000100000001000000010000000100000048
:103084000100000001000000010000000100000038
:10309400640000006400000064000000640000009C
:1030A4000A000000070000000300000000127A007C
:0830B400100000000100000003
:040000050800198D49
:00000001FF
